{
  "_format": "hh-sol-artifact-1",
  "contractName": "MemoryRegistry",
  "sourceName": "contracts/MemoryRegistry.sol",
  "abi": [
    {
      "anonymous": false,
      "inputs": [
        {
          "indexed": true,
          "internalType": "string",
          "name": "sessionId",
          "type": "string"
        },
        {
          "indexed": false,
          "internalType": "string",
          "name": "rootHash",
          "type": "string"
        },
        {
          "indexed": false,
          "internalType": "uint256",
          "name": "timestamp",
          "type": "uint256"
        },
        {
          "indexed": false,
          "internalType": "string",
          "name": "preview",
          "type": "string"
        }
      ],
      "name": "MemoryRegistered",
      "type": "event"
    },
    {
      "inputs": [],
      "name": "getAllRecords",
      "outputs": [
        {
          "components": [
            {
              "internalType": "string",
              "name": "sessionId",
              "type": "string"
            },
            {
              "internalType": "string",
              "name": "rootHash",
              "type": "string"
            },
            {
              "internalType": "uint256",
              "name": "timestamp",
              "type": "uint256"
            },
            {
              "internalType": "string",
              "name": "preview",
              "type": "string"
            }
          ],
          "internalType": "struct MemoryRegistry.MemoryRecord[]",
          "name": "",
          "type": "tuple[]"
        }
      ],
      "stateMutability": "view",
      "type": "function"
    },
    {
      "inputs": [
        {
          "internalType": "string",
          "name": "sessionId",
          "type": "string"
        }
      ],
      "name": "getSessionRecords",
      "outputs": [
        {
          "components": [
            {
              "internalType": "string",
              "name": "sessionId",
              "type": "string"
            },
            {
              "internalType": "string",
              "name": "rootHash",
              "type": "string"
            },
            {
              "internalType": "uint256",
              "name": "timestamp",
              "type": "uint256"
            },
            {
              "internalType": "string",
              "name": "preview",
              "type": "string"
            }
          ],
          "internalType": "struct MemoryRegistry.MemoryRecord[]",
          "name": "",
          "type": "tuple[]"
        }
      ],
      "stateMutability": "view",
      "type": "function"
    },
    {
      "inputs": [
        {
          "internalType": "uint256",
          "name": "",
          "type": "uint256"
        }
      ],
      "name": "records",
      "outputs": [
        {
          "internalType": "string",
          "name": "sessionId",
          "type": "string"
        },
        {
          "internalType": "string",
          "name": "rootHash",
          "type": "string"
        },
        {
          "internalType": "uint256",
          "name": "timestamp",
          "type": "uint256"
        },
        {
          "internalType": "string",
          "name": "preview",
          "type": "string"
        }
      ],
      "stateMutability": "view",
      "type": "function"
    },
    {
      "inputs": [
        {
          "internalType": "string",
          "name": "sessionId",
          "type": "string"
        },
        {
          "internalType": "string",
          "name": "rootHash",
          "type": "string"
        },
        {
          "internalType": "uint256",
          "name": "timestamp",
          "type": "uint256"
        },
        {
          "internalType": "string",
          "name": "preview",
          "type": "string"
        }
      ],
      "name": "registerMemory",
      "outputs": [],
      "stateMutability": "nonpayable",
      "type": "function"
    }
  ],
  "bytecode": "0x608060405234801561001057600080fd5b50611229806100206000396000f3fe608060405234801561001057600080fd5b506004361061004c5760003560e01c80630c4122ea14610051578063344610671461006d578063a7f9fe72146100a0578063fc87a126146100be575b600080fd5b61006b60048036038101906100669190610a2e565b6100ee565b005b61008760048036038101906100829190610af7565b610352565b6040516100979493929190610bc3565b60405180910390f35b6100a861052a565b6040516100b59190610da9565b60405180910390f35b6100d860048036038101906100d39190610dcb565b610749565b6040516100e59190610da9565b60405180910390f35b6000604051806080016040528089898080601f016020809104026020016040519081016040528093929190818152602001838380828437600081840152601f19601f82011690508083019250505050505050815260200187878080601f016020809104026020016040519081016040528093929190818152602001838380828437600081840152601f19601f82011690508083019250505050505050815260200185815260200184848080601f016020809104026020016040519081016040528093929190818152602001838380828437600081840152601f19601f820116905080830192505050505050508152509050600081908060018154018082558091505060019003906000526020600020906004020160009091909190915060008201518160000190816102209190611053565b5060208201518160010190816102369190611053565b506040820151816002015560608201518160030190816102569190611053565b5050506001888860405161026b929190611164565b908152602001604051809103902081908060018154018082558091505060019003906000526020600020906004020160009091909190915060008201518160000190816102b89190611053565b5060208201518160010190816102ce9190611053565b506040820151816002015560608201518160030190816102ee9190611053565b5050508787604051610301929190611164565b60405180910390207f6f8019c0b1c75b2bc2ca44117ead609188faf8c0dc55e0913f91c97ff97a5c3387878787876040516103409594939291906111aa565b60405180910390a25050505050505050565b6000818154811061036257600080fd5b906000526020600020906004020160009150905080600001805461038590610e76565b80601f01602080910402602001604051908101604052809291908181526020018280546103b190610e76565b80156103fe5780601f106103d3576101008083540402835291602001916103fe565b820191906000526020600020905b8154815290600101906020018083116103e157829003601f168201915b50505050509080600101805461041390610e76565b80601f016020809104026020016040519081016040528092919081815260200182805461043f90610e76565b801561048c5780601f106104615761010080835404028352916020019161048c565b820191906000526020600020905b81548152906001019060200180831161046f57829003601f168201915b5050505050908060020154908060030180546104a790610e76565b80601f01602080910402602001604051908101604052809291908181526020018280546104d390610e76565b80156105205780601f106104f557610100808354040283529160200191610520565b820191906000526020600020905b81548152906001019060200180831161050357829003601f168201915b5050505050905084565b60606000805480602002602001604051908101604052809291908181526020016000905b82821015610740578382906000526020600020906004020160405180608001604052908160008201805461058190610e76565b80601f01602080910402602001604051908101604052809291908181526020018280546105ad90610e76565b80156105fa5780601f106105cf576101008083540402835291602001916105fa565b820191906000526020600020905b8154815290600101906020018083116105dd57829003601f168201915b5050505050815260200160018201805461061390610e76565b80601f016020809104026020016040519081016040528092919081815260200182805461063f90610e76565b801561068c5780601f106106615761010080835404028352916020019161068c565b820191906000526020600020905b81548152906001019060200180831161066f57829003601f168201915b50505050508152602001600282015481526020016003820180546106af90610e76565b80601f01602080910402602001604051908101604052809291908181526020018280546106db90610e76565b80156107285780601f106106fd57610100808354040283529160200191610728565b820191906000526020600020905b81548152906001019060200180831161070b57829003601f168201915b5050505050815250508152602001906001019061054e565b50505050905090565b60606001838360405161075d929190611164565b9081526020016040518091039020805480602002602001604051908101604052809291908181526020016000905b8282101561097d57838290600052602060002090600402016040518060800160405290816000820180546107be90610e76565b80601f01602080910402602001604051908101604052809291908181526020018280546107ea90610e76565b80156108375780601f1061080c57610100808354040283529160200191610837565b820191906000526020600020905b81548152906001019060200180831161081a57829003601f168201915b5050505050815260200160018201805461085090610e76565b80601f016020809104026020016040519081016040528092919081815260200182805461087c90610e76565b80156108c95780601f1061089e576101008083540402835291602001916108c9565b820191906000526020600020905b8154815290600101906020018083116108ac57829003601f168201915b50505050508152602001600282015481526020016003820180546108ec90610e76565b80601f016020809104026020016040519081016040528092919081815260200182805461091890610e76565b80156109655780601f1061093a57610100808354040283529160200191610965565b820191906000526020600020905b81548152906001019060200180831161094857829003601f168201915b5050505050815250508152602001906001019061078b565b50505050905092915050565b600080fd5b600080fd5b600080fd5b600080fd5b600080fd5b60008083601f8401126109b8576109b7610993565b5b8235905067ffffffffffffffff8111156109d5576109d4610998565b5b6020830191508360018202830111156109f1576109f061099d565b5b9250929050565b6000819050919050565b610a0b816109f8565b8114610a1657600080fd5b50565b600081359050610a2881610a02565b92915050565b60008060008060008060006080888a031215610a4d57610a4c610989565b5b600088013567ffffffffffffffff811115610a6b57610a6a61098e565b5b610a778a828b016109a2565b9750975050602088013567ffffffffffffffff811115610a9a57610a9961098e565b5b610aa68a828b016109a2565b95509550506040610ab98a828b01610a19565b935050606088013567ffffffffffffffff811115610ada57610ad961098e565b5b610ae68a828b016109a2565b925092505092959891949750929550565b600060208284031215610b0d57610b0c610989565b5b6000610b1b84828501610a19565b91505092915050565b600081519050919050565b600082825260208201905092915050565b60005b83811015610b5e578082015181840152602081019050610b43565b60008484015250505050565b6000601f19601f8301169050919050565b6000610b8682610b24565b610b908185610b2f565b9350610ba0818560208601610b40565b610ba981610b6a565b840191505092915050565b610bbd816109f8565b82525050565b60006080820190508181036000830152610bdd8187610b7b565b90508181036020830152610bf18186610b7b565b9050610c006040830185610bb4565b8181036060830152610c128184610b7b565b905095945050505050565b600081519050919050565b600082825260208201905092915050565b6000819050602082019050919050565b600082825260208201905092915050565b6000610c6582610b24565b610c6f8185610c49565b9350610c7f818560208601610b40565b610c8881610b6a565b840191505092915050565b610c9c816109f8565b82525050565b60006080830160008301518482036000860152610cbf8282610c5a565b91505060208301518482036020860152610cd98282610c5a565b9150506040830151610cee6040860182610c93565b5060608301518482036060860152610d068282610c5a565b9150508091505092915050565b6000610d1f8383610ca2565b905092915050565b6000602082019050919050565b6000610d3f82610c1d565b610d498185610c28565b935083602082028501610d5b85610c39565b8060005b85811015610d975784840389528151610d788582610d13565b9450610d8383610d27565b925060208a01995050600181019050610d5f565b50829750879550505050505092915050565b60006020820190508181036000830152610dc38184610d34565b905092915050565b60008060208385031215610de257610de1610989565b5b600083013567ffffffffffffffff811115610e0057610dff61098e565b5b610e0c858286016109a2565b92509250509250929050565b7f4e487b7100000000000000000000000000000000000000000000000000000000600052604160045260246000fd5b7f4e487b7100000000000000000000000000000000000000000000000000000000600052602260045260246000fd5b60006002820490506001821680610e8e57607f821691505b602082108103610ea157610ea0610e47565b5b50919050565b60008190508160005260206000209050919050565b60006020601f8301049050919050565b600082821b905092915050565b600060088302610f097fffffffffffffffffffffffffffffffffffffffffffffffffffffffffffffffff82610ecc565b610f138683610ecc565b95508019841693508086168417925050509392505050565b6000819050919050565b6000610f50610f4b610f46846109f8565b610f2b565b6109f8565b9050919050565b6000819050919050565b610f6a83610f35565b610f7e610f7682610f57565b848454610ed9565b825550505050565b600090565b610f93610f86565b610f9e818484610f61565b505050565b5b81811015610fc257610fb7600082610f8b565b600181019050610fa4565b5050565b601f82111561100757610fd881610ea7565b610fe184610ebc565b81016020851015610ff0578190505b611004610ffc85610ebc565b830182610fa3565b50505b505050565b600082821c905092915050565b600061102a6000198460080261100c565b1980831691505092915050565b60006110438383611019565b9150826002028217905092915050565b61105c82610b24565b67ffffffffffffffff81111561107557611074610e18565b5b61107f8254610e76565b61108a828285610fc6565b600060209050601f8311600181146110bd57600084156110ab578287015190505b6110b58582611037565b86555061111d565b601f1984166110cb86610ea7565b60005b828110156110f3578489015182556001820191506020850194506020810190506110ce565b86831015611110578489015161110c601f891682611019565b8355505b6001600288020188555050505b505050505050565b600081905092915050565b82818337600083830152505050565b600061114b8385611125565b9350611158838584611130565b82840190509392505050565b600061117182848661113f565b91508190509392505050565b60006111898385610b2f565b9350611196838584611130565b61119f83610b6a565b840190509392505050565b600060608201905081810360008301526111c581878961117d565b90506111d46020830186610bb4565b81810360408301526111e781848661117d565b9050969550505050505056fea2646970667358221220c333695412f02d8d833fb1ba1ac33f35dceb60d08d1440fe9a1315d32481586664736f6c63430008140033",
  "linkReferences": {},
  "deployedLinkReferences": {}
}